:020000040800F2
:10000000F02A002031020008091E0008811B0008A8
:10001000CD1D000879160008492F000800000000D7
:100020000000000000000000000000009926000809
:100030001518000800000000292500080128000804
:100040004B0200084B0200084B0200084B0200085C
:100050004B0200084B020008171800084B0200086A
:100060004B0200082D180008751800084B02000804
:100070004B0200084B0200084B0200084B0200082C
:100080004B0200084B0200084B0200084B0200081C
:100090004B0200084B0200084B0200084B0200080C
:1000A0004B0200084B0200084B0200084B020008FC
:1000B0004B0200084B020008F92800084B02000818
:1000C0004B0200084B0200084B0200084B020008DC
:1000D0004B020008252D00084D2D00084B0200089A
:1000E0004B0200084B0200084B0200084B020008BC
:1000F0004B0200084B0200084B0200084B020008AC
:100100004B0200084B0200084B0200084B0200089B
:100110004B0200084B0200082D2900084B02000882
:100120004B0200084B0200084B0200084B0200087B
:1001300000F002F800F06DF80AA090E8000C82448C
:100140008344AAF10107DA4501D100F062F8AFF269
:10015000090EBAE80F0013F0010F18BFFB1A43F0A5
:100160000103184728640000486400000A444FF067
:10017000000C10F8013B13F0070408BF10F8014B06
:100180001D1108BF10F8015B641E05D010F8016B4B
:10019000641E01F8016BF9D113F0080F1EBF10F8AF
:1001A000014BAD1C0C1B09D16D1E58BF01F801CBD2
:1001B000FAD505E014F8016B01F8016B6D1EF9D555
:1001C0009142D6D37047000000230024002500266A
:1001D000103A28BF78C1FBD8520728BF30C148BFAA
:1001E0000B607047662904F09E85642900F08C80BE
:1001F000732900F0E883002070471FB500F0FAFB78
:1002000004000020002103F099FFE0601FBD10B53D
:1002100010BD00F0F3FC1146FFF7EFFF03F0BCF94F
:1002200000F011FD03B4FFF7F2FF03BC02F0A9FEDA
:100230000948804709480047FEE7FEE7FEE7FEE77A
:10024000FEE7FEE7FEE7FEE7FEE7FEE704480549B6
:10025000054A064B704700003928000831010008A4
:10026000F0240020F02A0020F0260020F0260020B4
:10027000704700000FB4044910B503AA029800F0BB
:10028000A7FB10BC5DF814FB441E00200FB41CB586
:10029000074B06AA7B4469460090059800F069FB6D
:1002A0000020694600F078FB1CBC5DF814FB0000E0
:1002B0000107000070B50C460546012A05D02878D4
:1002C000800600D5EA69002302E0012305E05B1CFB
:1002D000934202D2E05C0028F9D1A869E618C01A5E
:1002E000A861286A184428622846AFF3008004E019
:1002F000D5E9012114F8010B9047B442F8D3284600
:10030000AFF3008070BD00002DE9F04106460024E7
:1003100010687529314616A510D0AFF3008000286B
:1003200002DA404213A507E031688A0701D512A519
:1003300002E0490704D511A5012401E0AFF30080D4
:1003400000210A2206F1240709E0B0FBF2FCB0FB11
:10035000F2F302FB1C00303078541846491C002888
:10036000F3D123462A463046BDE8F04100F093B869
:10037000000000002D0000002B0000002000000005
:100380002DE9F0474FF0000A89460446C0F820A046
:100390002046E1688847002876D0252806D0D4E991
:1003A00001219047206A401C2062F1E7E168204665
:1003B00000258847C4F81CA006460027C4F818A0EA
:1003C0002A2E09D0304602F0D5FD38B304EB870859
:1003D000303EC8F8186019E059F8041B204604EBB9
:1003E00087029161E1688847012F064618D1E069CC
:1003F000002820DA25F020051DE0D8F8180000EBD1
:10040000800006EB40003038C8F818002046E1684C
:100410008847064602F0AEFD0028EED1012F0AD033
:100420002E2E08D12046E16888477F1C0646022F01
:1004300045F02005C4DBA069002803DA404245F0FE
:100440000105A061E80701D025F01005B6B1A6F1BD
:100450004100192802D8203645F400654A46314645
:10046000204625604D46FFF7BDFE58B1012806D055
:10047000ED1D25F0070000F1080989E704E005F10A
:10048000040985E730468AE7206ABDE8F0877047AF
:100490007047704770472DE9F0470D4699469246E0
:1004A000044600F124080168880604D5E06921F0BB
:1004B0001001216000E00120A84201DD471B00E09F
:1004C0000027A1697A1902EB0900081AA0612078B7
:1004D000C00602D42046AFF30080002608E0D4E92D
:1004E00001211AF806009047206A401C761C206201
:1004F0004E45F4DB2078C0060AD52046AFF30080D5
:1005000006E0D4E9012130209047206A401C206297
:10051000381EA7F10107F4DC07E0D4E9012118F83F
:1005200005009047206A401C2062281EA5F10105A5
:10053000F3DC2046AFF300802078000602D50220CD
:10054000BDE8F0870120FBE770472DE9FF4F0C461F
:100550001E464FF0FF378BB0D2E90001DDF8608016
:100560000A908A46C1F30A5505B93D46002108465E
:100570004FF00000BAF1000F00F4400005DA00EB84
:1005800080004FF4400101EA50004FEA9059B9F160
:10059000010F00DDB9460A9850EA4A000ED044F631
:1005A0001050A5F2FF3545432F14B8F1000F1ED0AF
:1005B0007542291E1EDDC9F100021CE0B8F1010FD1
:1005C0004FF0000001D0302103E0F24305E0215458
:1005D000401CB042FBDB30460022002121540B9925
:1005E000C1F80880C1E900200FB0BDE8F08FBD1B45
:1005F0006D1CDEE74A4600DA694206A800F084FA7C
:1006000006AB93E8070003AB83E8070050460A995E
:1006100000F062FB8DE80700A0F500501F38009045
:100620000398002D0ADD42F21F014A4608440023C8
:1006300003A90390684600F0CBFD09E0A0F5005047
:100640004A461F38002303A90390684600F0D5FDF1
:100650008DE807000004000C03D04FF0FF30410884
:1006600000E01046B8F1000F03D0002200921546BA
:100670001EE0751E05D400F0C1F9303262556D1EC2
:10068000F9D5B3460122084302D000227F1C04E0C2
:100690002078302801D100227F1E002A099784D0BB
:1006A0001DE0112D07DA00F0A9F9303262556D1CFA
:1006B00050EA0102F5D1084302D00098C8B10EE01B
:1006C0000021681E05E0235C625C63542254401ED6
:1006D000491C8142F7DBAB46A81B401E0990002055
:1006E00004F80B000B98099AC0F80880C0E9002BA9
:1006F0007AE711264FF0000857E72DE9F04F8846BA
:100700000446D21D22F0070191B0D1E90001CDE9E4
:100710000A0102F01BFC02460B98C00F01D02D20ED
:1007200007E02068810701D52B2002E0202101EAA3
:10073000C000032A099001D0072A05DB0346414681
:10074000204600F0A1F90BE12078800601D5E06990
:1007500000E00620B8F1650F814606D0B8F1660FBB
:1007600018D0B8F1670F70D131E00020B9F1110F46
:10077000009001DB112301E009F101030AAA01A99C
:100780000CA8FFF7E2FEDDE90C70002609F1010577
:10079000834647E001204B4600904FF000470AAAED
:1007A00001A90CA8FFF7D1FEDDE90DB00C995D465B
:1007B000002610B909F101000D18B9EB050003D4AA
:1007C000C0F1FF3609F10105A5EB09002BE0B9F1F5
:1007D000010F01DA4FF001090020B9F1110F00906B
:1007E000484601DD112300E003460AAA01A90CA82E
:1007F000FFF7ABFEDDE90C704D46002683462078FE
:1008000000070AD4AB4500DA5D4601A8012D04DDDE
:10081000411911F8011C302907D04F4502DA17F1B0
:10082000040F04DA012082460FE06D1EEEE7002F70
:1008300002DCED1B3E4403E0781CA84200DD7D1C79
:10084000B81B00F1010A4FF000472078000703D4DD
:10085000AA4501DB4FF0FF3A0021B7F1004F0DF13F
:1008600043088DF8431024D002202B23002F01DAF7
:100870007F422D230A21021EA0F1010000DC5FB19E
:1008800097FBF1FC97FBF1F201FB1C7C17460CF186
:10089000300C08F801CDEEE7A8F1010003702188C3
:1008A000090501D5452100E06521A0F1010800F806
:1008B000011C09980FA9A1EB0807FF1D00B1012039
:1008C000411901EBEA70A1693844081A401EA06181
:1008D0002078C00602D42046AFF30080099828B1E2
:1008E000D4E901219047206A401C20622078C0068C
:1008F00022D52046AFF300801EE0002E04DBB34576
:1009000002DD01A8805D00E03020D4E9012190479C
:10091000206A401C2062761CAAF101005FEA000AEE
:100920000AD100F067F8C0680168405CD4E9012191
:100930009047206A401C2062281EA5F10105DCDCDE
:1009400007E0D4E9012118F8010B9047206A401C08
:100950002062381EA7F10107F3DC2046AFF30080C8
:10096000032011B041E6000001694A1C02610878C9
:10097000704700B58FB0CDE90131002105910549DF
:100980007944CDE9031011466846FFF7F9FC0FB032
:1009900000BD0000E5FFFFFF0A6802F8010B0A60D6
:1009A000704710B5436913B1AFF3008001E0FFF762
:1009B00081FC012010BD127800F124010A70002290
:1009C0004A700122EDE711684FF0FF32E9E70000BD
:1009D000074B70B50D467B44FFF7CBFF0446284616
:1009E00000F004F910B14FF0FF3070BD204670BD2B
:1009F000D32A000000487047AC24002030B5B0F185
:100A00000A024FEA900E71F100034EEA817EB0EBCC
:100A10000E0061EB91014FEA101E4EEA017E10EBD1
:100A20000E0041EB11114FEA102E4EEA016E10EB51
:100A30000E0041EB11214FEA104E4EEA014E10EB31
:100A40000E0041EB1141401841F100014FEAD00086
:100A500040EA41704FEAD10110EB80054FEA810472
:100A600044EA907444EB01046D1944EB0404521BF6
:100A7000A3414FF0000348BF0A3200D530BD401CEF
:100A800041F1000130BD00002DE9F0411F46044650
:100A900003260168072A01F4006004DB08B116A5EB
:100AA00005E016A503E008B115A500E015A521F0A5
:100AB00010002060A069C01EA0610FB1401EA0619F
:100AC0002046AFF300804FB1D4E90121384690476A
:100AD000206A401C2062C01C206206E0206AFAE7FF
:100AE000D4E9012115F8010B9047761EF8D2204673
:100AF000AFF30080BDE8F0814E414E006E616E00A4
:100B0000494E4600696E66002DE9F047814616465B
:100B10008AB0354878440DC88DE80D0032487844D5
:100B2000801C03AC0DC884E80D0041F69B300844DE
:100B3000372190FBF1F290FBF1F5A5F1800501FB67
:100B400012041B3C02D56442012000E00020DFF8C3
:100B500098A080460027FA44AAF1BE0A0EE0E007FA
:100B60000AD03246684607EB470101230AEB8101B0
:100B700000F043FB8DE8070064107F1C002CEED1D1
:100B8000194F7F44AE3F19E0E80715D007EB04107A
:100B90000DF1180A90E80E008AE80E00C068F042D5
:100BA00001D1981908903246012306A903A800F044
:100BB00024FB03AB83E807006D10641C002DE3D118
:100BC0004FF0010332466946B8F1000F03A802D086
:100BD00000F0FEFA01E000F010FBC9E90001C9F8DD
:100BE00008200AB0BDE8F0875C5A0000007B00F0E6
:100BF00080007047004870478C2400207546FFF73E
:100C0000F9FFAE4605006946534620F007008546C9
:100C100018B020B5FFF71AFBBDE820404FF00006E2
:100C20004FF000074FF000084FF0000B21F00701D4
:100C3000AC46ACE8C009ACE8C009ACE8C009ACE817
:100C4000C0098D46704710B50446AFF300802046BA
:100C5000BDE81040FFF7E6BA4FF0013C50F8042B16
:100C600051F8043B9A4221D1A2EB0C03934313EABF
:100C7000CC1317D150F8042B51F8043B9A4215D1EC
:100C8000A2EB0C03934313EACC130BD150F8042BC3
:100C900051F8043B9A4209D1A2EB0C03934313EAA7
:100CA000CC13DBD04FF00000704700BFD01A01BA60
:100CB000B1FA81F101F0180122FA01F0CB40C1F143
:100CC0002001DBB2C0B2C01A2CFA01F3D11A914351
:100CD00011EAC311E6D170475FEA400C08BF91F0FA
:100CE000000F4FEA8C234FEAC12243EA51514FEAE9
:100CF0001C5018BF00F5F0404FEA300018BF41F01B
:100D000000415FEA6C5C00F02980BCF1FF3F08BF46
:100D100040F080407047130C06BF12044FF0100CD7
:100D20004FF0000C130E04BF12020CF1080C130F4D
:100D300004BF12010CF1040C930F04BF92000CF1DC
:100D4000020CD30F04BF52000CF1010C11464FF0FE
:100D50000002A0F11F00A0EB0C00704711F0004F43
:100D600008BF704731F000413FF4D5AF0B0C06BF10
:100D700009044FF0100C4FF0000C0B0E04BF0902D9
:100D80000CF1080C0B0F04BF09010CF1040C8B0FC4
:100D900004BF89000CF1020CCB0F04BF49000CF119
:100DA000010CCCF12003A0EB0C0022FA03F302FAB1
:100DB0000CF241EA030100F10100704720F07F4C82
:100DC00080EA030023F07F47ACEB070303F57C5375
:100DD00000F0004003F1FF032DE980494FEA154B75
:100DE00009B44FEA144325EA0B4E24EA03480FF2F4
:100DF000042606EB132749083E785FEA320203FB1C
:100E00000667C7F5000707FB06F64FEA54374FEAB7
:100E1000D64606F1020607FB066CCCF1005C4FEAF1
:100E20001C472CEA074C07FB06F40CFB06F504EB09
:100E300015464FEA961634BF00204FF000404FEAA7
:100E4000D13706FB07FC4FEA1C4C0CFB0BF7D21BFF
:100E500003FB0CF761EB07010CFB0EF7B0EB07404F
:100E600072EB17420CFB08F734BFA2EB0742B2EB60
:100E7000074261EB17414FEA0C444FEA910706FB2A
:100E800007FC4FEA1C4C0CFB0BF7B0EBC74072EBB6
:100E9000573203FB0CF734BFA2EBC742B2EBC74299
:100EA00061EB57310CFB0EF7B0EBC70072EB5772DA
:100EB0000CFB08F734BFA2EBC702B2EBC70261EB31
:100EC0005771039F4FEA816141EA921104EBCC0410
:100ED0004FEAD1374FEA826206FB07FC42EA9012E2
:100EE0004FEA80604FEA1C4C0CFB0BF7D21B03FB54
:100EF0000CF761EB07010CFB0EF7B0EB074072EB50
:100F000017420CFB08F734BFA2EB0742B2EB0742D3
:100F100061EB17414FEA8C554FEA910704EB9C2493
:100F200006FB07FC4FEA1C4C0CFB0BF7B0EBC74071
:100F300072EB573203FB0CF734BFA2EBC742B2EBA4
:100F4000C74261EB57310CFB0EF7B0EBC70072EBF9
:100F500057720CFB08F734BFA2EBC702B2EBC70213
:100F600061EB577115EB4C254FEA816141EA921113
:100F70004FEA82624FEAD13742EA901206FB07FC41
:100F800044F100044FEA80604FEA1C4C0CFB0BF765
:100F9000D21B03FB0CF761EB07010CFB0EF7B0EB68
:100FA000074072EB17420CFB08F734BFA2EB074275
:100FB000B2EB074261EB174115EB1C154FEA81318B
:100FC00041EA92414FEA823242EA90424FEA80304F
:100FD0004FEA0C7644F1000448EA03434EEA0B481A
:100FE0004FF0000EB2EB080C71EB030724BF624612
:100FF00039464EEB0E0E4FF0000B0018524149419E
:101000004BEB0B0BB2EB080C71EB03077BF1000B06
:1010100024BF624639464EEB0E0E4FF0000B00180F
:10102000524149414BEB0B0BB2EB080C71EB030740
:101030007BF1000B24BF624639464EEB0E0E51EA9F
:10104000020718BF46F0010616EB0E7655F10002B6
:1010500054F1000103D5BDE88901BDE80088BDE871
:101060008901BDE80048B619524141EB0101A3F1E5
:101070000103704780807F7E7D7C7B7A79787776EC
:1010800076757473727171706F6E6E6D6C6C6B6A65
:101090006A69686867666665646463636261616003
:1010A000605F5F5E5E5D5D5C5C5B5B5A5A59595880
:1010B00058575756565555555454535352525251EA
:1010C000515050504F4F4F4E4E4D4D4D4C4C4C4B40
:1010D0004B4B4A4A4A494949484848474747474687
:1010E00046464545454444444443434343424242C3
:1010F00042414141002B9C4630D477002BD01CB597
:101100004FEA370703B44FF010004FF01001BAF167
:10111000000F06D0BCF1000FDCBF40F0080040F02B
:1011200008014FF000000FBCBDE810400BF1010BAF
:10113000BBF1010F08BF5FEA170722BF12F10102DE
:1011400011F101014FF0004143F1000300F00040B4
:1011500043EA00007047F9D35708D0E746EA06464D
:1011600013F1400F4FEA16461FDD13F1200FDFBFCA
:1011700016430A46002120335B42BED0C3F120074C
:1011800046EA064602FA07F74FEA164646EA070617
:10119000C3F1200722FA03F201FA07F721FA03F15B
:1011A0004FF0000342EA0702A7E746EA020646EAD2
:1011B00006464FEA164646EA0106BCBF46EA064620
:1011C000360C4FF000034FF000024FF0000194E79F
:1011D0002DE9804C9A46934670B491E8380007C8D0
:1011E00031EA400C48BF34EA430C03D5FFF7E6FD73
:1011F000FFF780FFF0BCBDE8008C2DE9804C9A46DB
:10120000934670B491E8380007C810F0804F08BFCB
:1012100013F0804F03D100F005F8FFF76BFFF0BC2F
:10122000BDE8008C20F07F4780EA030023F07F4C6C
:1012300007EB0C03A3F57C5300F00040A3F1FE0381
:1012400092F0000F00F0B38095F0000F00F077806F
:101250002DE901494FEA11404FEA144621EA0048BE
:1012600000FB06FC24EA064708FB06F607FB08F825
:1012700000FB07F718EB06484CEB164C4FEA124BF5
:1012800018EB07484FEA15464CEB174022EA0B4E85
:101290000BFB06FC25EA06470EFB06F607FB0EFED7
:1012A0000BFB07F71EEB064E4CEB164C4FF00006FF
:1012B0001EEB074E4CEB174B18EB0B0840F10000F0
:1012C00018EB0E0B58EB000840F100008F1A4FF09E
:1012D00000013CBFC943661B14BFB5EB040C0021E1
:1012E0003CBFC943F61B4FEA17444EEA8E0E27EA6D
:1012F00004454FEA1C4704FB07622CEA074C05FB38
:1013000007F70CFB05F604FB0CFC16EB074642EB5B
:10131000174216EB0C4642EB1C421BEB060658EB41
:101320000202414146EA9E0601D5BDE80189B6198F
:10133000524141EB0101A3F10103BDE801894FEAEC
:1013400014454FEA114724EA054621EA074C05FBFC
:1013500007F406FB07F70CFB06F105FB0CFC11EB91
:10136000074144EB17444FEA124711EB0C4144EBA1
:101370001C4422EA074C05FB07F206FB07F70CFBAF
:1013800006F605FB0CFC16EB074642EB174216EB84
:101390000C4642EB1C456A1854F1000148BF7047E7
:1013A000B619524141EB0101A3F10103704795F0D9
:1013B000000F37D04FEA11424FEA144721EA0246A4
:1013C00024EA074C02FB07F106FB07F70CFB06F4C7
:1013D00002FB0CFC14EB074441EB17414FEA1547A5
:1013E00014EB0C4441EB1C4125EA074C02FB07F5CA
:1013F00006FB07F70CFB06F602FB0CFC16EB074698
:1014000045EB174516EB0C4645EB1C42121951F102
:10141000000148BF7047B619524141EB0101A3F1E9
:10142000010370474FEA14454FEA114724EA054685
:1014300021EA074C05FB07F106FB07F70CFB06F258
:101440004FF0000605FB0CFC12EB074241EB174185
:1014500012EB0C4251EB1C4148BF7047921841EB14
:101460000101A3F10103704721B1826842F001023A
:10147000826003E0826822F001028260704700000F
:1014800010B504461248844208D10121401501F0EC
:1014900089F80021601501F085F817E00D488442B5
:1014A00008D10121001501F07DF80021201501F07F
:1014B00079F80BE00848844208D10121C80301F003
:1014C00071F800214FF4004001F06CF810BD0000ED
:1014D0000024014000280140003C0140014600205A
:1014E0008A6802F004020AB1012000E0002070477F
:1014F0000146C86C80B270470246002013680B405A
:101500000BB1012000E000207047014600208A68EE
:1015100002F008020AB1012000E00020704700003C
:1015200030B502460020002350680F4C20400D7952
:101530000C6844EA05242043506090680B4C20401E
:10154000D1E902542C434D7944EA4504204390608C
:10155000D06A20F470000C7C641EE4B2234340EA9D
:101560000350D06230BD0000FFFEF0FFFDF7F1FF39
:10157000F0B504460D4600200021092D11DDE0687C
:10158000A5F10A0606EB4607072606FA07F1884387
:10159000A5F10A0606EB460603FA06F10843E060E9
:1015A0000CE0206905EB4507072606FA07F188439A
:1015B00005EB450603FA06F108432061072A0FDA16
:1015C000606B561E06EB86071F2606FA07F1884356
:1015D000561E06EB860605FA06F10843606322E014
:1015E0000D2A0FDA206BD61F06EB86071F2606FA98
:1015F00007F18843D61F06EB860605FA06F1084375
:10160000206310E0E06AA2F10D0606EB86071F26B4
:1016100006FA07F18843A2F10D0606EB860605FAE5
:1016200006F10843E062F0BD816841F00801816085
:10163000704721B1826842F4A002826003E08268B0
:1016400022F4A00282607047816841F00401816049
:101650007047000030B10749096841F40001054AAC
:10166000116005E00349096821F40001014A116095
:10167000704700000824014000BFFEE710B50024B9
:1016800009E00548006830B1601CC4B21E2001F0BA
:1016900065FD012010BDF4E70001214210B50021D5
:1016A000014801F05DF910BD0010004010B50024A4
:1016B0001548406820F47040134948600846406867
:1016C00040F40040486004E0601CC4B2012001F016
:1016D0006BFD0E48006808B1642CF5DB642C01DB5F
:1016E000012010BD002404E0601CC4B2012001F000
:1016F0005BFD0648006808B9642CF5DB642C01DB4F
:101700000120EEE70020ECE7002001402C012442FC
:1017100010B5002404E0601CC4B2012001F044FDB7
:101720000D48006808B1642CF5DB002404E0601C5F
:10173000C4B2012001F038FD0748006808B9642CE4
:10174000F5DB282001F030FD0348006808B10120D6
:1017500010BD0020FCE700002C01244270B50024DD
:10176000002506E06006040EFFF7D2FF0443681C64
:10177000C5B2082DF6DB204670BD7CB505460E4689
:1017800000F028F8FFF792FFF8B9002405E0FFF712
:10179000E5FF0DF80400601CC4B2052CF7DB9DF8D2
:1017A00000009DF8011008449DF8021008449DF8BF
:1017B000031008449DF80410884208D19DF80000E9
:1017C00030709DF80200287001E001207CBD0020EF
:1017D000FCE7000010B50C48406820F470400A494E
:1017E00048600846406840F440504860002007497F
:1017F0000860142001F0B2FC01200549C1F8AC01D9
:101800001E2001F0D1FC10BD00200140AC0124429B
:1018100000002442704710B5012000F04DF8FFF79A
:101820002DFF08B100F0F4FF10BD000010B50A2034
:1018300001F094FC08210B4800F039F968B9012047
:1018400002F002F808A0FEF715FD02F0EFF9022100
:10185000074800F037F902F085F8082000F02CF86E
:1018600010BD000000180140BFAAB5E7BBFA000098
:10187000000C014010B50A2001F070FC10210A484C
:1018800000F015F960B90221084800F019F90421A7
:10189000064800F015F906A0FEF7ECFC01F0E8FFA1
:1018A000102000F009F810BD00180140000C0140A4
:1018B000B9D8B5E7BBFA00000149086070470000DD
:1018C00014040140002123498279002A3AD00A46B3
:1018D000126803689A430B461A600A1D126803686F
:1018E0009A430B1D1A60027911440A6803681A436F
:1018F0000A60184A0832126803689A43154B083385
:101900001A601A1D126803689A43124B0C331A604E
:101910004279102A0ED11A1F126803681A430D4B20
:1019200008331A601A1D126803681A43094B0C33F6
:101930001A600DE00749427911440A6803681A43A6
:101940000A6005E0027911440A6803689A430A6054
:10195000704700000004014030B500228B071C0FC7
:101960000F2303FA04F20B4B8C1053F824309343EB
:10197000084C8D1044F8253023468C1053F8243041
:101980008C07240F00FA04F42343024C8D1044F812
:10199000253030BD080001402DE9F0410246002508
:1019A0000026002000230024002791F803C00CF03B
:1019B0000F0591F803C00CF0100CBCF1000F03D020
:1019C00091F802C04CEA050591F800C0BCF1000F87
:1019D00031D0146800202BE04FF0010C0CFA00F31A
:1019E000B1F800C00CEA03069E4220D183004FF0FC
:1019F0000F0C0CFA03F7BC4305FA03FC4CEA040491
:101A000091F803C0BCF1280F06D14FF0010C0CFA7D
:101A100000FCC2F814C00AE091F803C0BCF1480F02
:101A200005D14FF0010C0CFA00FCC2F810C0401CAC
:101A30000828D1D31460B1F800C0BCF1FF0F34DD29
:101A4000546800202EE000F1080C4FF0010808FA5D
:101A50000CF3B1F800C00CEA03069E4221D18300CA
:101A60004FF00F0C0CFA03F7BC4305FA03FC4CEAE9
:101A7000040491F803C0BCF1280F05D100F1080C53
:101A800008FA0CF8C2F8148091F803C0BCF1480FB2
:101A900007D100F1080C4FF0010808FA0CF8C2F861
:101AA0001080401C0828CED35460BDE8F081024667
:101AB000002093680B400BB1012000E0002070472C
:101AC000416170470161704710B500BF0848008848
:101AD0004FF47A7100FB01F4064801F041F8044428
:101AE000002004498884322001F038FB204610BDD4
:101AF00038080020001000402DE9F05F142110206C
:101B000001F0F8F88346584603F03AF8804602F0B0
:101B100075FF06464FF06632124B02F087FD044611
:101B20000D4622462B461048104902F07DFE8046A5
:101B30000F4A104B02F0F2FB064600220E4B02F059
:101B400045FB04460D4600220C4B2046294602F078
:101B50006DFD064602F03AFD0FFA80FA5046BDE8E8
:101B6000F09F000066664A3FE17A14AE47E1F63F17
:101B700022FDF675E09C713F00003940000059409D
:101B800000BFFEE72DE9F84F4FF0000A0024A346FE
:101B9000A14631E0012021490860142001F004FB36
:101BA00000201F49C1F8940100BF1C488438006818
:101BB0000028FAD000F086FC641C00BF1748843867
:101BC00000680128FAD0FFF769FDFFF77DFF824624
:101BD000504602F0D5FF009002F010FF07460022A9
:101BE000104B02F09BFB054602F0BEFA83464946C5
:101BF000584602F02FFF8146052CCBD1484602F013
:101C0000FDFE07460022084B02F088FB054602F065
:101C1000ABFA83465846BDE8F88F00009481214214
:101C20000080214200004D40000014401FB50121FA
:101C3000082000F0A7FC2020ADF8000003208DF85C
:101C4000020010208DF8030069461E48FFF7A4FE2D
:101C500020211C48FFF734FF1020ADF800000420BD
:101C60008DF8030069461748FFF796FE10211548C6
:101C7000FFF726FF0121102000F064FC4FF08040A8
:101C800000F07AFE40F2E730ADF808004720ADF8EA
:101C900004000020ADF80A00ADF8060001A90A48CA
:101CA00000F07EFF0121084800F054FE0122114699
:101CB000054800F069FF01F03FFC0021024800F0F8
:101CC0004FFE1FBD000C01400010004010B5202148
:101CD0000848FFF7F7FE4FF480510748FFF7F2FE80
:101CE00020210448FFF7ECFE4FF480510248FFF733
:101CF000E7FE10BD001401400020014010B54FF474
:101D000080510648FFF7DEFE20210548FFF7D8FE88
:101D100020210348FFF7D6FE10BD0000002001403F
:101D20000014014010B54FF480510448FFF7CAFE7B
:101D30004FF480510148FFF7C3FE10BD0020014061
:101D400008B50121442000F01DFC1820ADF800006A
:101D500048208DF8030069460648FFF71DFE012064
:101D6000ADF8000028208DF8030069460248FFF70F
:101D700013FE08BD001801400008014008B501210C
:101D8000482000F0FFFB4FF48460ADF80000102005
:101D90008DF8030003208DF8020069460948FFF71B
:101DA000FBFD20210748FFF78DFE2020ADF8000045
:101DB00069460548FFF7F0FD20210348FFF782FE42
:101DC00008BD0000000C01400018014000BFFEE704
:101DD00008B50121802000F0D5FB4FF4C050ADF8CC
:101DE000000010208DF8030003208DF802006946E2
:101DF0000448FFF7D1FD4FF4C0510248FFF760FEE1
:101E000008BD0000001C01407047000070B50021B3
:101E100000230F22C47804B3154C246804F4E06452
:101E2000C4F5E064210AC1F10403CA40447804FA0D
:101E300003F184781440214309010E4C0678A15522
:101E4000047804F01F050124AC4005786D11AD0045
:101E500005F1E025C5F8004109E0047804F01F050C
:101E60000124AC40044D0678761145F8264070BD3B
:101E70000CED00E000E400E080E100E002490143F5
:101E8000024A1160704700000000FA050CED00E006
:101E900070B500240CE0002506E00020074901EBA6
:101EA000C5010855681CC5B2802DF6DB601CC4B2A4
:101EB000082CF0DB00F042F970BD00007C1F002010
:101EC00070B50B46CE1701EB5676C6F3C702CE1798
:101ED00001EB5676F610A1EBC606F4B20123A3403F
:101EE000DDB20E4B03EBC0039B5CDB430B4E06EBFA
:101EF000C006B354094B03EBC0039B5C2B43074E56
:101F000006EBC006B354054B03EBC0039B5CDB43FD
:101F1000024E06EBC006B35470BD00007C1F0020CB
:101F200010B504461CB90021A62000F0AEFA012C21
:101F300003D10021A72000F0A8FA10BD10B5044677
:101F40003CB90021C82000F0A0FA0021A12000F037
:101F50009CFA012C07D10021C02000F096FA002144
:101F6000A02000F092FA10BD70B50A46CE1701EB22
:101F70005676C6F3C703CE1701EB5676F610A1EBE3
:101F8000C606F4B20122A240D5B2054A02EBC00255
:101F9000D25C2A43024E06EBC006F25470BD00002C
:101FA0007C1F002008B508214FF4B07000F0EAFA59
:101FB0004FF48050ADF8000010208DF8030003208E
:101FC0008DF8020069465948FFF7E6FC4FF480514E
:101FD0005648FFF777FDC020ADF8000010208DF8BF
:101FE000030003208DF8020069465148FFF7D4FC36
:101FF000C0214F48FFF766FD48F22200ADF800000F
:1020000010208DF8030003208DF80200694649482E
:10201000FFF7C2FC48F222014648FFF753FD4FF498
:10202000A060ADF8000010208DF8030003208DF8AB
:10203000020069464048FFF7AFFC4FF4A0613E48FC
:10204000FFF740FD0021AE2000F01FFA00210846F6
:1020500000F01BFA0021102000F017FA00214020A8
:1020600000F013FA0021812000F00FFA0021CF20A8
:1020700000F00BFA0021A12000F007FA0021C8208F
:1020800000F003FA0021A62000F0FFF90021A820AB
:1020900000F0FBF900213F2000F0F7F90021D320E8
:1020A00000F0F3F90021084600F0EFF90021D520F7
:1020B00000F0EBF90021802000F0E7F90021D920A1
:1020C00000F0E3F90021F12000F0DFF90021DA202F
:1020D00000F0DBF90021122000F0D7F90021DB200D
:1020E00000F0D3F90021402000F0CFF9002120209A
:1020F00000F0CBF90021022000F0C7F900218D206B
:1021000000F0C3F90021142000F0BFF90021A42041
:1021100000F0BBF90021A62000F0B7F90021AF20A4
:1021200000F0B3F9FFF7B4FE08BD00000020014045
:10213000000C0140001401400018014070B500245B
:102140001CE004F1B001C8B2002100F09EF90021AA
:10215000084600F09AF90021102000F096F90025B9
:1021600008E0084901EBC501085D012100F08DF987
:10217000681CC5B2802DF4DB601CC4B2082CE0DB07
:1021800070BD00007C1F002010B510230B22202101
:10219000002000F0D5F810230C222021122000F09E
:1021A000CFF821492148FFF7E8FA2048027820A11A
:1021B0002148FEF76BF810231F4A2021222000F04F
:1021C00043F910230D221946002000F0B9F810231E
:1021D0000C221946122000F0B3F81348027817A118
:1021E0001548FEF753F81023134A1946212000F032
:1021F0002BF910231A4619465A2000F0A1F8102393
:10220000112219466C2000F09BF810230F22202188
:102210005A2000F095F81023112220216C2000F0A4
:102220008FF8FFF78BFF10BD0D0800200C08002071
:102230003A25642043000000F01E00203A25645235
:10224000480000002DE9FF4F81B080460E461C4635
:1022500000962046E31704EB5373DB1021464FEA48
:10226000E47C04EB5C7C4FEAEC0CA4EBCC0CBCF102
:10227000000F02D04FF0010C01E04FF0000C63445E
:10228000224604EBD27C4FEA6C0C03FB0CF303F008
:10229000FF0B03982038C7B2002547E00C2C07D16C
:1022A00007EB4700234901EB800010F805A014E07C
:1022B000102C05D1204800EB071010F805A00CE009
:1022C000182C07D107EBC7001C4901EB800010F860
:1022D00005A002E005B0BDE8F08F4FF000091FE057
:1022E0000AF0800020B131464046FFF73DFE03E092
:1022F00031464046FFF7E4FD4FEA4A604FEA106A74
:10230000701CC6B20098301AA04205D1009E08F198
:10231000010000F0FF0806E009F1010000F0FF09EC
:10232000B9F1080FDCDB00BF681CC5B25D45B5DB49
:1023300000BFCFE72A4D00089E5100088E570008C5
:102340002DE9FF4F0746884691461C464FF0000B8B
:102350000297CDF804802046E11704EB5171C1F3D8
:10236000C701009160E009FB04F0C11700EB517157
:102370000BEBE101CEB20BF1010000F0FF0B0025E9
:1023800050E0102C05D12C4800EB0610405D039066
:102390001BE0182C07D106EBC600284901EBC00052
:1023A000405D039011E0202C05D1254800EBC610BC
:1023B000405D039009E0402C05D1224800EB462007
:1023C000405D039001E0BDE8FF8F4FF0000A17E089
:1023D000039800F0010020B141463846FFF7C4FDE4
:1023E00003E041463846FFF76BFD03984010039029
:1023F00008F1010000F0FF080AF1010000F0FF0AF7
:10240000BAF1080FE4DB781CC7B20298381AA04270
:1024100004D1029F01980830C0B20190DDF8048019
:10242000681CC5B2A542ACDB0098411EC9B2009140
:10243000002898D100BFC6E744080020640B0020A4
:102440003C0C00203C0E0020F0B506460F4614461A
:102450001D4613E022782B4639463046FFF7F2FE40
:10246000284605EBD07106EB6101CEB2C5F18000C4
:10247000B04202DA0026B81CC7B2641C20782028BB
:1024800002DB20787E28E5DDF0BD70B505460C4600
:10249000FFF71CFC782000F001F9FFF743FC1CB1AA
:1024A000402000F0FBF802E0002000F0F7F8FFF712
:1024B00039FC284600F0F2F8FFF734FCFFF71EFC69
:1024C00070BD000010B50021054800F066FB00203B
:1024D000044908800121024800F042FA10BD0000C2
:1024E00000100040380800200A48006840F004004E
:1024F000084908600846006840F002000860064885
:10250000006840F004000449086000BF00BF30BF0D
:10251000704700000070004010ED00E001490860C5
:1025200070470000A0000E427047000001460020E6
:10253000034A506820F44040084350607047000050
:102540000010024029B1064AD2690243044BDA6105
:1025500004E0034AD2698243014BDA61704700000C
:102560000010024029B1064A12690243044B1A6165
:1025700004E0034A12698243014B1A61704700006C
:102580000010024029B1064A92690243044B9A6145
:1025900004E0034A92698243014B9A61704700004C
:1025A0000010024029B1064AD2680243044BDA60A7
:1025B00004E0034AD2688243014BDA6070470000AE
:1025C0000010024030B500210022002400232D4DD0
:1025D0006D6805F00C0121B1042905D0082923D12B
:1025E00005E0294D056022E0274D05601FE0254DDF
:1025F0006D6805F47012234D6D6805F48034022572
:1026000005EB92421CB9214D554305600BE01D4D71
:102610006D6805F400351DB11C4D5543056002E0A1
:10262000194D5543056002E0174D056000BF00BF1E
:10263000144D6D6805F0F0010909154D6B5C0568D6
:10264000DD4045600F4D6D6805F4E061090A104DED
:102650006B5C4568DD4085600A4D6D6805F460512E
:10266000C90A0B4D6B5C4568DD40C560054D6D6862
:1026700005F44041890B074D6B5CC568B5FBF3F56C
:10268000056130BD0010024000127A0000093D00D3
:10269000761E0020861E00207047000070B504469C
:1026A00000251EE04FF480510F48FFF709FA04F0AF
:1026B000800020B120210D48FFF704FA03E020211B
:1026C0000A48FFF7FDF94FF480510748FFF7FAF980
:1026D0004FF480510448FFF7F3F96006040E681CBC
:1026E000C5B2082DDEDB70BD0020014000140140A2
:1026F00010B500F001F810BD0CB50020019000905D
:102700003348006840F480303149086000BF3048E9
:10271000006800F4003000900198401C019000987F
:1027200018B90198B0F5A06FF1D12948006800F4FC
:10273000003010B10120009001E0002000900098CE
:10274000012843D12348006840F010002149086067
:102750000846006820F0030008600846006840F062
:10276000020008601A4840681949486008464068F5
:1027700048600846406840F4806048600846406809
:1027800020F47C1048600846406840F4E810486037
:102790000846006840F08070086000BF0C48006880
:1027A00000F000700028F9D00948406820F00300CC
:1027B000074948600846406840F00200486000BF92
:1027C0000348406800F00C000828F9D10CBD000057
:1027D0000010024000200240042808D14FF0E02100
:1027E000096941F004014FF0E022116107E04FF068
:1027F000E021096921F004014FF0E02211617047E6
:1028000002480068401C0149086070471008002019
:1028100010B500214FF4FE70FFF7C4FE00F001F880
:1028200010BD10B501210807FFF78CFE0120FFF74E
:1028300075FEFFF759FE10BD10B51348006840F053
:1028400001001149086008464068104908400E49D7
:102850004860084600680E4908400B490860084671
:10286000006820F4802008600846406820F4FE00DC
:1028700048604FF41F008860FFF73AFF4FF0006098
:102880000449086010BD0000001002400000FFF87D
:10289000FFFFF6FE08ED00E07FB505460C4601217E
:1028A0000420FFF74FFEADF80850ADF804400020BB
:1028B000ADF80A00ADF8060001A90E4800F070F965
:1028C000012211460B4800F05FF91E208DF8000030
:1028D00000208DF8010002208DF8020001208DF803
:1028E00003006846FFF792FA0121024800F038F829
:1028F0007FBD00000008004010B50121084800F02D
:1029000032F958B10121064800F027F8054800685F
:10291000401C0449086004A0FDF7ACFC10BD000099
:1029200000080040401E00206E69000010B5012123
:10293000064800F018F940B10121044800F00DF8F4
:1029400003480088401C0249088010BD0010004068
:1029500038080020CA4302827047CA430282704787
:1029600021B1028842F00102028004E002884FF6A1
:10297000FE731A400280704710B5044668488442CE
:1029800008D10121C014FFF70DFE0021E014FFF76C
:1029900009FEC4E0B4F1804F08D101210846FFF7D9
:1029A000E1FD00210120FFF7DDFDB8E05D48844234
:1029B00008D101210220FFF7D5FD00210220FFF7F9
:1029C000D1FDACE05848844208D101210420FFF732
:1029D000C9FD00210420FFF7C5FDA0E05348844253
:1029E00008D101210820FFF7BDFD00210820FFF7D5
:1029F000B9FD94E04E48844208D101211020FFF730
:102A0000B1FD00211020FFF7ADFD88E04948844268
:102A100008D101212020FFF7A5FD00212020FFF78C
:102A2000A1FD7CE04448844208D101214014FFF715
:102A3000B9FD00216014FFF7B5FD70E03F48844206
:102A400009D10121C804FFF7ADFD00214FF400209A
:102A5000FFF7A8FD63E03A48844209D10121080547
:102A6000FFF7A0FD00214FF48010FFF79BFD56E01B
:102A70003448844209D101214805FFF793FD002124
:102A80004FF40010FFF78EFD49E02F48844208D133
:102A900001214020FFF766FD00214020FFF762FD85
:102AA0003DE02A48844208D101218020FFF75AFDE9
:102AB00000218020FFF756FD31E02548844208D1EF
:102AC00001218015FFF74EFD0021A015FFF74AFDFB
:102AD00025E02048844209D101210804FFF762FD66
:102AE00000214FF48030FFF75DFD18E01A48844262
:102AF00009D101214804FFF755FD00214FF40030B2
:102B0000FFF750FD0BE01548844208D101218804ED
:102B1000FFF748FD00214FF48020FFF743FD10BD73
:102B2000002C01400004004000080040000C004060
:102B3000001000400014004000340140004C0140EF
:102B4000005001400054014000180040001C0040AB
:102B50000020004000400140004401400048014086
:102B60000146888C704730B50246002000230024BF
:102B7000158A05EA0103958905EA010413B10CB130
:102B8000012000E0002030BD1AB183890B4383810E
:102B900002E083898B438381704781847047000002
:102BA000002202881D4B98420ED01D4B98420BD03C
:102BB000B0F1804F08D01B4B984205D01A4B984279
:102BC00002D01A4B984204D14FF68F731A404B88AB
:102BD0001A43174B984207D0164B984204D04FF631
:102BE000FF431A40CB881A4302808B8883850B8869
:102BF00003850A4B98420BD0094B984208D00E4BE4
:102C0000984205D00D4B984202D00D4B984201D10D
:102C10000B7A03860123838270470000002C014059
:102C2000003401400004004000080040000C004057
:102C300000100040001400400040014000440140EA
:102C40000048014000B585B001214FF40170FFF745
:102C500099FC4FF40040FFF769FC1848FEF710FCA0
:102C6000002000908DF804008DF805004FF46020DE
:102C700002900020039001208DF8100069460F4853
:102C8000FEF74EFC0120FEF7E5FC01210B48FEF7A4
:102C9000EBFB0A48FEF7C8FC00BF0848FEF735FC0E
:102CA0000028FAD10548FEF7CFFC00BF0348FEF725
:102CB00015FC0028FAD105B000BD00000024014039
:102CC00010B504460723012221460948FEF750FCAF
:102CD00001210748FEF7ADFC00BF02210448FEF7C2
:102CE0000BFC0028F9D00248FEF702FC10BD0000E2
:102CF000002401402DE9F04107460C46002500263E
:102D000008E03846FFF7DCFF0544052000F026FA0E
:102D1000701CC6B2A642F4DBB5FBF4F080B2BDE88D
:102D2000F081000010B5002440F22551064800F063
:102D300038F8012806D1044800F0EEF8C4B2204665
:102D400001F096F810BD00000038014010B50024D5
:102D500040F22551054800F024F830B1034800F056
:102D6000DBF8C4B2204601F083F810BD00440040F7
:102D700021B1828942F40052828104E082894DF6B9
:102D8000FF731A408281704702460020B1F5007F30
:102D900000D100BF13880B400BB1012000E00020E0
:102DA000704770B50246002400230025002040F63D
:102DB0006A16B14200D100BFC1F3421501F01F03F2
:102DC000012606FA03F3012D02D19689334006E06D
:102DD000022D02D1168A334001E0968A33400C124C
:102DE000012606FA04F41688344013B10CB1012010
:102DF00000E0002070BDF0B5034600240026002549
:102E0000002040F66A17B94200D100BF1846C1F34E
:102E1000421401F01F06012707FA06F5012C01D123
:102E20000C3004E0022C01D1103000E014301AB153
:102E300007682F43076002E00768AF430760F0BDF3
:102E40002DE9F04786B005460E460024A24600BF95
:102E5000A1460027B08900B100BF2F462C8A4CF64E
:102E6000FF700440F08804432C82AC894EF6F310C6
:102E70000440B08831890843718908430443AC8118
:102E8000AC8A4FF6FF400440B0890443AC8201A8ED
:102E9000FFF798FB1F48874202D1DDF810A001E040
:102EA000DDF80CA0A88900F4004040B10AEBCA008C
:102EB00000EB0A1031684900B0FBF1F807E00AEBBB
:102EC000CA0000EB0A1031688900B0FBF1F86420F9
:102ED000B8FBF0F004012009642101FB1089A889E6
:102EE00000F4004040B1322000EBC900B0FBF1F02B
:102EF00000F00700044308E0322000EB09106421D1
:102F0000B0FBF1F000F00F0004432C8106B0BDE8E7
:102F1000F08700000038014001468888C0F30800AF
:102F2000704770B504460D4600BF80212046FFF76C
:102F30002BFF0028F9D02946204600F001F870BD8B
:102F4000C1F308028280704700BFFEE7490050EAE3
:102F5000C12018BF04204A0D18BF40F0010040F204
:102F6000FF72B2EB515F08BF40F00200012808BFBA
:102F70000520704730380A2801D201207047002010
:102F8000704700BF7047000010B50021012000F01D
:102F900057FB6421022000F015FC6E21032000F095
:102FA00081FB0A480168042000F00CFC0748017806
:102FB000052000F045FB06480178062000F040FBA4
:102FC0000021072000F09AFB10BD0000601E0020C9
:102FD000681E002008B501210820FFF7D3FA4FF43E
:102FE0000060ADF8000003208DF8020010208DF87D
:102FF000030069460448FEF7CFFC4FF40061024825
:10300000FEF760FD08BD0000000C01402DE9F05FF7
:1030100004462D49E01C11F800A0BAF1060F1AD0A1
:1030200009DCBAF1000F0DD0BAF1010F0DD0BAF1E1
:10303000020F45D10CE0BAF1080F32D0BAF10E0FF1
:103040003ED131E000F08CFA3BE000F081FD38E049
:1030500000F060FA35E01C49601D095C1A4A201D29
:10306000105C41EA0027002518E0A01D2844801CC0
:103070001549085C4FF6FF7101EA0026A01D28449F
:10308000C01C1149085C304486B22144891D48198E
:1030900000F01CF88346301D284485B2BD42E4DBB5
:1030A0000FE0FFF771FF0CE00749A01D11F8008049
:1030B000E01D11F800904946404600F07BFF00E01B
:1030C00000BF00BFBDE8F09FFC2300202DE9F047C2
:1030D0000446267894F80180A0784FF6FF7101EA43
:1030E0000025E078284485B2304600F0FBF9074619
:1030F000084800EB47004078404502D00020BDE87A
:10310000F0872A46211D304600F0C0F88146484627
:10311000F5E70000EA64000810B56FF00400FFF75F
:103120005BFB0A4800680A49B0FBF1F009490870E6
:103130000846007800EB4001C1EBC0104FF6FF716C
:1031400001EAC0000449088010BD00001C080020EE
:1031500000127A003C1E00203E1E00200146114A4B
:1031600012884A434FF0E0235A6100229A611A46BE
:10317000126942F001021A6100BF4FF0E0221069AB
:1031800000F001021AB100F48032002AF5D04FF0AD
:10319000E022126922F001024FF0E0231A610022BE
:1031A0009A6170473E1E00200146114A12784A4338
:1031B0004FF0E0235A6100229A611A46126942F0E8
:1031C00001021A6100BF4FF0E022106900F0010215
:1031D0001AB100F48032002AF5D04FF0E0221269D3
:1031E00022F001024FF0E0231A6100229A61704739
:1031F0003C1E00202DE9F04106460F463946304678
:1032000000F01FFB054625B1012D11D0022D2ED156
:103210001DE01D48D0E900100A3960F100001A4A8B
:10322000C2E9001010460168042000F0CBFA1FE04C
:103230001548D0E90020143A60F100001249C1E9B4
:10324000002008460168042000F0BCFA10E00E4897
:10325000D0E900201E21511A60F100000A4AC2E99B
:10326000001010460168042000F0ACFA00E000BF36
:1032700000BF2946032000F015FA0446012C01D1B5
:10328000BDE8F0810020FBE7601E00202DE9F04141
:1032900005460E461746012D06D0032D0AD0052DF2
:1032A0000ED0062D18D111E03946304600F082F8D4
:1032B000044612E039463046FFF79CFF04460CE016
:1032C0003946304600F042F8044606E039463046BA
:1032D00000F008F8044600E000BF00BF2046BDE84B
:1032E000F08100002DE9F04106460F463946304690
:1032F00000F0A4FA054665B90020114908602021B4
:103300001048FEF7DFFB4FF400610F48FEF7D8FBD3
:103310000BE001200A49086020210A48FEF7D0FB93
:103320004FF400610848FEF7CDFB2946062000F067
:1033300087F90446012C01D1BDE8F0810020FBE7AC
:10334000681E002000180140000C01402DE9F041EA
:1033500006460F463946304600F070FA054665B914
:1033600000201149086020211048FEF7ABFB4FF404
:1033700000610F48FEF7A4FB0BE001200A4908603A
:1033800020210A48FEF79CFB4FF400610848FEF735
:1033900099FB2946052000F053F90446012C01D180
:1033A000BDE8F0810020FBE7681E00200018014006
:1033B000000C01402DE9F04106460F4639463046E3
:1033C00000F03CFA05462DB900F0CCFA08A0FCF755
:1033D00051FF01E000F0C6FA2946012000F030F963
:1033E0000446012C01D1BDE8F0810020FBE700007C
:1033F000657272726F7200000EB501210846FFF708
:10340000C1F803210420FEF7A7FA0820019000204C
:103410008DF808000C208DF8090001208DF80A00B5
:1034200001A8FEF74FFA04210846FEF795FA10208E
:10343000019001A8FEF746FA00210846FEF78CFA33
:103440000120019008208DF8090001A8FEF73AFA42
:1034500006208DF8000002208DF8010003208DF871
:10346000020001208DF803006846FEF7CFFC09201A
:103470008DF8000002208DF8010001208DF8020077
:103480008DF803006846FEF7C1FC0A208DF80000A5
:1034900002208DF8010000208DF8020001208DF837
:1034A00003006846FEF7B2FC0EBD000000BF054AEF
:1034B000128802F04002002AF9D0C2B2014B1B1D53
:1034C0001A8070470038014030B5024600200023C2
:1034D00005E012F8015B2C18E0B25C1CA3B28B4231
:1034E000F7DB30BD70B5054600F012F80646002443
:1034F00007E0064810F81400A84200D103E0601C61
:10350000C4B2B442F5DB00BF204670BDEA640008D7
:103510000720704710B500240E21204600F0EAFB7A
:10352000C4B20021204600F0E5FBC4B222460321CC
:10353000022000F0D1FD10BD08B54FF4A060FEF7E9
:103540009DFC36208DF8000000208DF801008DF8DC
:10355000020001208DF803006846FEF757FC08BD05
:1035600010B500240B48007840B90021204600F037
:10357000C1FBC4B201200749087004E001212046C4
:1035800000F0B8FBC4B222460321002000F0A4FDE5
:1035900010BD0000751E0020FFF7BEFD4FF4A060B7
:1035A000FEF76CFCFEF7EAFB00F0C6F9FEF7C8FB7D
:1035B000FFF722FFFFF70EFDFFF744FB4FF4E1306A
:1035C00000F002FC4FF4165000F088FC41F61F4159
:1035D00041F28730FFF760F94FF400611548FEF7BC
:1035E00066FA15490860FEF721FB00F0CDFC00F0FB
:1035F00089FBFEF7EDFBFEF7D5FC0020FEF790FC03
:103600000020FEF79BFCFEF799FD00F0ABF90FE000
:1036100000F0D4FCFEF7B8FD00F074FB4FF400613D
:103620000648FEF74DFA4FF480510448FEF74AFA77
:10363000EEE70000000C014008080020001C0140DB
:1036400070B504460D46002615480078012800D1C3
:1036500070BD2146304600F04DFB06460121304644
:1036600000F048FB06460021304600F043FB0646CA
:103670000121304600F03EFB06462DB900213046C0
:1036800000F038FB064604E00121304600F032FB32
:10369000064632460321072000F01EFD0120D7E731
:1036A000741E002070B504460E46002512480078AE
:1036B000012800D170BD2146284600F01BFB0546BD
:1036C0000421284600F016FB05460021284600F09C
:1036D00011FB05460121284600F00CFB054631464A
:1036E000284600F007FB05462A460321072000F084
:1036F000F3FC0120DEE70000741E002070B50546D3
:103700000C4600262E480078012800D170BD2946BD
:10371000304600F0EFFA06460521304600F0EAFA9E
:1037200006460021304600F0E5FA064644F0FF0068
:10373000FF280AD10121304600F0DCFA0646E1B24A
:10374000304600F0D7FA064632E04FF6FF702043CD
:103750004FF6FF71884210D10221304600F0CAFABC
:103760000646C4F30721304600F0C4FA0646E1B22B
:10377000304600F0BFFA06461AE00421304600F059
:10378000B9FA0646210E304600F0B4FA0646C4F3F4
:103790000741304600F0AEFA0646C4F30721304632
:1037A00000F0A8FA0646E1B2304600F0A3FA064659
:1037B00032460321072000F08FFC0120A6E700001D
:1037C000741E002070B505460C4600261A48007885
:1037D000012800D170BD2946304600F08BFA06461C
:1037E0000221304600F086FA06460021304600F0FD
:1037F00081FA06460421304600F07CFA0646210E86
:10380000304600F077FA0646C4F30741304600F030
:1038100071FA0646C4F30721304600F06BFA0646FB
:10382000E1B2304600F066FA064632460321072030
:1038300000F052FC0120CDE7741E002002461078F3
:10384000704702461078704770B504460025002086
:10385000064908602146284600F04CFAC5B22A46BF
:103860000321052000F038FC70BD0000541E00202C
:1038700010B558E04FF480712D48FEF721F94FF450
:1038800000712B48FEF71CF940212948FEF718F972
:1038900080212748FEF716F90320FFF75FFC4FF45D
:1038A00080712348FEF70CF94FF400712048FEF7B1
:1038B00007F940211E48FEF705F980211C48FEF754
:1038C000FFF80320FFF74AFC4FF480711848FEF719
:1038D000F7F84FF400711648FEF7F4F84021144849
:1038E000FEF7EEF880211248FEF7EAF80320FFF712
:1038F00035FC4FF480710E48FEF7E4F84FF4007188
:103900000B48FEF7DDF840210948FEF7D9F8802181
:103910000748FEF7D5F80320FFF720FC05480068AC
:10392000401C04490860034800686428A2D310BD05
:10393000001001403008002008B501211020FEF7DA
:1039400021FE4FF47070ADF8000003208DF80200E6
:1039500010208DF8030069460148FEF71DF808BDE8
:103960000010014010B558E040215F48FEF7AAF86A
:1039700080215D48FEF7A4F84FF480715A48FEF7A5
:103980009FF84FF400715848FEF79AF80320FFF7AC
:10399000E5FB40215448FEF793F880215248FEF79A
:1039A00091F84FF480715048FEF78AF84FF4007197
:1039B0004D48FEF785F80320FFF7D0FB40214A4829
:1039C000FEF77EF880214848FEF77AF84FF48071C0
:1039D0004548FEF777F84FF400714348FEF770F85A
:1039E0000320FFF7BBFB40213F48FEF769F8802129
:1039F0003D48FEF765F84FF480713B48FEF760F8EC
:103A00004FF400713848FEF75DF80320FFF7A6FB7E
:103A100036480068401E3549086034480068002870
:103A2000A2D14FF47A70FFF799FB58E04FF4807100
:103A30002D48FEF745F84FF400712B48FEF740F88B
:103A400040212948FEF73CF880212748FEF73AF844
:103A50000320FFF783FB4FF480712348FEF730F813
:103A60004FF400712048FEF72BF840211E48FEF766
:103A700029F880211C48FEF723F80320FFF76EFB8E
:103A80004FF480711848FEF71BF84FF40071164888
:103A9000FEF718F840211448FEF712F8802112486A
:103AA000FEF70EF80320FFF759FB4FF480710E4824
:103AB000FEF708F84FF400710B48FEF701F84021BB
:103AC0000948FDF7FDFF80210748FDF7F9FF0320B6
:103AD000FFF744FB05480068401C044908600348A0
:103AE00000686428A2D310BD0010014030080020F7
:103AF000F0B505460E4613462A46344605B10EB9C2
:103B00000020F0BDA24202D9E018904208D2002164
:103B100003E0605C5054481C81B29942F9DB07E035
:103B2000194603E0481E275C175481B20029F9DCCE
:103B30002846E6E70146002209B900207047002226
:103B400000E0521C11F8013B002BFAD11046F5E7BA
:103B50003EB50024002000900190029025A0FFF7C0
:103B6000E9FF85B22A4623A1204600F0AFF8C4B28F
:103B700022A0FFF7DFFF85B22A4620A1204600F0F1
:103B8000A5F8C4B222A0FFF7D5FF85B22A4620A12E
:103B9000204600F09BF8C4B21FA0FFF7CBFF85B210
:103BA0002A461DA1204600F091F8C4B21CA0FFF7E0
:103BB000C1FF85B22A461AA1204600F087F8C4B298
:103BC00016A0FFF7B7FF85B22A4614A1204600F0E1
:103BD0007DF8C4B214A0FFF7ADFF85B22A4612A14A
:103BE000204600F073F8C4B222460321012000F001
:103BF00073FA3EBD7B2270223A220000646C646935
:103C00006362793466677270686D6B7A00000000D9
:103C1000222C2276223A2200312E302E3000000053
:103C2000222C226D223A00007D0000007CB517484E
:103C300002781748017817A0FCF71CFBFDF75CFF22
:103C4000642190FBF1F000B217490880FDF754FFA2
:103C5000642190FBF1F201FB120014490880084630
:103C6000B0F9000000F074FF064600F0C7FECDE991
:103C700000010D48B0F900200DA11248FCF706FB29
:103C8000104911A0FCF7F6FA7CBD00000D080020D9
:103C90000C080020CEC2B6C83A2564432CCAAAB686
:103CA000C83A25640D0A0000040800200608002018
:103CB000435055CEC2B6C83A25642E252E660D0A4D
:103CC000000000008C1E0020257300002DE9F0414B
:103CD00004460E461546064807192A463146384618
:103CE000FFF706FF601984B22046BDE8F0810000AE
:103CF00059240020024B1A181170431C98B27047C7
:103D00005924002070B5FDF73DFF0646304600F00F
:103D100003FF00EB800014490968A1EB4000134940
:103D20000860084612A102681348FCF7AFFA304653
:103D300000F064FE044622460B4610A0FCF79AFAF7
:103D40001023122200210846FEF7FAFA102313224C
:103D500000211846FEF7F4FA1023074A002120201C
:103D6000FEF772FB70BD00003C08002040080020F8
:103D70003A25642525000000541F0020BEE0C0EB5A
:103D8000CEAA3A252E33660A000000000B490968C6
:103D90000B4A126891420FD008490A6809498A42C1
:103DA00002D32039054A116004490968087803499B
:103DB0000968491C014A116070470000701E00200C
:103DC0006C1E00205324002010B586B0044601214B
:103DD00044F20400FEF7D6FB01214804FEF7B2FBD3
:103DE0004FF40070ADF8140003208DF81600182071
:103DF0008DF8170005A91C48FDF7CEFD4FF4806033
:103E0000ADF8140004208DF8170005A91648FDF739
:103E1000C3FD25208DF8000002208DF8010001204F
:103E20008DF802008DF803006846FDF7EFFF01945E
:103E30000020ADF80800ADF80A00ADF80C00ADF8B0
:103E400010000C20ADF80E0001A90848FEF7F8FF9D
:103E5000012240F225510548FEF7CDFF012103481C
:103E6000FEF786FF06B010BD000801400038014093
:103E700012490968124A1268891A01291CD010498E
:103E800009680E4A1268914206D90D4909680B4A21
:103E90001268891A20290FD209490A6809498A42F9
:103EA00002D32039064A116005490968087004499F
:103EB0000968491C024A116070470000701E00200A
:103EC0006C1E00205324002010B5044621460248F1
:103ED000FFF727F810BD00000044004010B586B081
:103EE000044601214804FEF72DFB01210420FEF7C2
:103EF00049FB18208DF817000420ADF814000320AA
:103F00008DF8160005A91E48FDF746FD04208DF822
:103F100017000820ADF8140003208DF8160005A93D
:103F20001748FDF739FD01940020ADF80800ADF801
:103F30000A00ADF80C00ADF810000C20ADF80E0032
:103F400001A91048FEF77CFF01210E48FEF710FF83
:103F5000012240F225510B48FEF74DFF26208DF837
:103F6000000001208DF8030002208DF801000320DD
:103F70008DF802006846FDF749FF06B010BD00004D
:103F80000008014000440040054806490860064911
:103F90000860002005490870FF2005490880704727
:103FA000332400206C1E0020701E0020741E002090
:103FB0004C1E002008B901B100BF704770B5002445
:103FC000002509E0FFF7E2FE38490A880988491C04
:103FD000364B19803649885434480088372803D234
:103FE00000F09EF80028EDDC30480088072800DA51
:103FF00070BD42E02E48005D552802D0601C84B29E
:104000003BE02B49601C085CAA2802D0601C84B2EB
:1040100033E02749A01C085C10B1A01C84B22CE03E
:104020002349201D085C4FF6FF7101EA0025204955
:10403000601D085CC01D284485B23E2D02D9E01CDD
:1040400084B21AE019480088001BA84200DA19E07F
:104050006A1E91B2164A1019FFF736FA6119491E05
:10406000134A515C884202D0E01C84B205E020462D
:10407000FEF7CCFF601984B200BF0C480088001B1B
:104080000728B7DA00BF09480088001B07490880E5
:1040900008460088002806DD054801190348028803
:1040A0000348FFF725FD00BFA2E70000581E0020CF
:1040B000FC23002070B504460D4604B105B970BD5F
:1040C00003E02078FFF700FF641C281EA5F1010122
:1040D0008DB2F6D100BFF2E72DE9F04105460E465C
:1040E0001446002755200D490870AA20487008463C
:1040F0008670C570201208714C71E01D84B2601E7C
:1041000081B20648FFF7E0F90746601E03490F54E5
:1041100021460248FFF7CEFFBDE8F081532400207E
:104120000448006804490968884201D001207047AA
:104130000020FCE76C1E0020701E002010B5002936
:104140000AD00878002807D005487844FCF784FD99
:10415000002801D0002010BD0248784410BD0000A6
:10416000622400005A24000021F00042A2F16052B3
:10417000B2F5801F01F0004328BFD2F17F6C0BD94C
:104180005FEA001C43EAC20242EB507018BF70475E
:1041900028BF20F001007047B2F5801FBCBF184651
:1041A00070474FEA410C1CF5001F02D2084600F090
:1041B00040BD70B500F0E4FA00000089FFF7F6BFDB
:1041C0004FF00040A0F580007047000010B591EA64
:1041D000030F48BF83F0004300F12E83841A71EB74
:1041E000030C05D2121943EB0C03001B61EB0C010D
:1041F000DFF824E14FEA1154A4EB135C1EEA430FED
:1042000018BF9EEA445F73D023EA0E03DCF1200E50
:1042100021EA045143F4801332D322FA0CFE10EB4E
:104220000E0023FA0CFE41EB0E01CCF1200E03FA36
:104230000EFE10EB0E0051F10001B1F5801FCCF124
:10424000200E32D201EB045112FA0EF2BDE81040FA
:1042500058BF7047401C38BF5FEA420218BF704722
:10426000002814BF20F0010041F100014FEA410392
:1042700013F5001F38BF7047A1F1C04100F0CEBA5E
:10428000012A43EB0302ACF1200CDCF11F0E32BF1C
:104290004FF0000E23FA0CF310EB030041EB045136
:1042A000B4EB115FD0D0A1EB045101F580114908A6
:1042B0005FEA300001EB04510ED350F1000038BF2B
:1042C00012FA0EFE08D1BDE81040C9E7401C38BF05
:1042D0005FEA4202CAD1C3E7BDE810404FEA41039A
:1042E00013F5001F38BF7047A1F1C04100F096BA26
:1042F0009EEA445F08D011EA5E0FBDE8104004BF9B
:1043000001F0004100207047BDE8104070B500F09A
:1043100037FA00BF64FBBE3E0000E0FF2DE9C0415C
:1043200030B4DFF8A0C23CEA111418BF3CEA131401
:1043300000F0EC8081EA03051CEA111444EAD5740C
:1043400018BF1CEA131500F0C780A4EB05044FF05A
:10435000004545EAC12145EAC32341EA505143EAF9
:10436000525304F17F74994204F500344FEAC0209F
:104370004FEAC22208BF904200F09C804FEA1365CA
:104380000FF24016765D4FEA134506FB05F7C7F1BD
:10439000807706FB07F74FEAD737A7FB036876421B
:1043A000C8F58038A7FB06CE38BFA8F1010807FB87
:1043B00008E64FF0000EA6FB028CE6FB03CEDCF114
:1043C000000CCEF1004E38BFAEF1010EA6FB0C582A
:1043D0004FF000074FF00005E6FB0E87A1FB08C673
:1043E000A0FB07CE16EB0E0645F10005E1FB0765C5
:1043F00015F1E04E7EBFA4F580345FEA46066D41BC
:1044000016F1800745F100054FEA17274FEA0666C7
:1044100047EA0567A6F1DE46B6F1805F4FEA15254B
:104420001FD9384624F0010C05EBC471BCF1FE6FB6
:1044300001EB0C1102D8F0BCBDE8008124425CBF46
:1044400001F5801E9EEAC47F02D4F0BCBDE8008165
:10445000244238D4F0BCA1F1C041BDE8004100F0D5
:10446000DDB94FEAD22242EA43524FEAD323A7FBF7
:1044700002864FEAD02040EA415007FB03661EEA5D
:104480000E0F4FEAD12105FB026658BFA6EB00567E
:10449000B6EB00564FEA520E4EEAC37E18EB0E0EF4
:1044A00056EB530EBDD518EB02085E417F1C55F14B
:1044B0000005B6E74FF480154FF000074FF00006F7
:1044C0004FF00008ADE7F0BC4FF0000001F1C04133
:1044D00001F00041BDE8008111EA0C1F0CEA131540
:1044E00000D00CE013EA0C1F00F025804FF0000014
:1044F000F0BC81EA030101F00041BDE80081F0BC9D
:10450000BDE8004181EA030100F088B9F0BCBDE8D4
:10451000004170B500F034F9097EFC3E00F007B8A8
:1045200081EA03014FF0000001F00041704781EA89
:10453000030100F073B9F0BCBDE800414FF000008A
:1045400021497047FFFDFBF9F7F5F4F2F0EEEDEBD2
:10455000E9E8E6E4E3E1E0DEDDDBDAD8D7D5D4D381
:10456000D1D0CFCDCCCBCAC8C7C6C5C4C2C1C0BFCD
:10457000BEBDBCBBBAB9B8B7B6B5B4B3B2B1B0AFD3
:10458000AEADACABAAA9A8A8A7A6A5A4A3A3A2A1B7
:10459000A09F9F9E9D9C9C9B9A9999989797969572
:1045A00095949393929191908F8F8E8E8D8C8C8B0E
:1045B0008B8A898988888787868585848483838296
:1045C000828181800000FF070000F87F4FEA4103ED
:1045D0004FEA5353A3F58063D3F11E03C8BFD3F151
:1045E000210C0CDD4FF0004242EAC12242EA505257
:1045F00032FA03FC8CEAE17CACEBE1707047102BE3
:10460000C4BF0020704703F5787CBCF1FF3F04D0A5
:104610006FF0004282EA2100704770B500F0B0F8F8
:104620004992248000207047F2E70000DFF848C17B
:1046300070B51CEA111E1EBF1CEA13159EEA0C0F72
:1046400095EA0C0F00F06F8081EA030423EA4C1313
:104650004EEAD47E21EA4C1141F4801143F48013D8
:10466000AE44A1FB024CA0FB0365AEF17F7E361980
:1046700055EB0C05A1FB034C4CF10003A0FB021C05
:1046800016EB0C06654153F10003094218BF46F0D2
:10469000010613F4007F0BD14FEA03314FEA0530D6
:1046A000340341EA155140EA16506FF003020AE064
:1046B0004FEAC3214FEAC520F40241EA555140EACE
:1046C00056506FF0020202EB2E4201EB025585EAD2
:1046D000CE710AD05FEA440C18BF24F0004450F1B8
:1046E000000041F1000120EAD47040F2FE7C6245F6
:1046F00000D270BDA84214BF4FF080444FF0404438
:10470000002E08BF0024BEF1806FA8BFA1F1C041F8
:10471000BDE8704080F282804FF0000001F1C0419E
:1047200001F0004170479EEA0C0F0CEA131518BF08
:1047300095EA0C0F06D04FF0000081EA030E0EF050
:10474000004170BD00F01CF88900013E00F007B880
:1047500000F009B84FEA430C5FEA5C5C08D081EADC
:10476000030100F05BB84FEA410C5FEA5C5CF6D1F4
:104770004FF00000014970470000FF070000F87F7C
:104780000EF1020E2EF0030E5EF8046B364205D4D5
:10479000012A43EB030515F5001F12D8012841EB50
:1047A000010C1CF5001F0CD80ED14FEAD17C15F579
:1047B000001F0CEB4C0C0CF1020C08BF4CEBD37C33
:1047C00004E04FF0080C01E04FEAD37C0CEB4C0501
:1047D00026FA05F606F00706B6F1040C06D20EEB33
:1047E000860CBDE870404CF0010C6047DFE80CF02F
:1047F000090B02024FF000414FF00000A1F500212B
:1048000070BD19461046012851EB010418BFD4F5BC
:10481000001484BF002001F0004170BD0808A0F51D
:1048200000114FEA3101704710B591EA030F48BFFC
:1048300083F000433FF5D2AC841A71EB030C07D22E
:1048400012198CF0004C43EB0C03001B61EB0C01C4
:10485000DFF8A4E14FEA1154A4EB135C1EEA430F06
:1048600018BF9EEA445F00F0B08023EA6E03524214
:1048700021EA0451C3EB6E0338BF5B1EDCF1200E4E
:1048800025D322FA0CFE10EB0E0043FA0CFE41EB8E
:104890000E01CCF1200E03FA0EFE10EB0E0051F1CA
:1048A0000001CCF1200E29D412FA0EF201EB0451D2
:1048B000BDE8104058BF7047401C1CBFB2F1004F0C
:1048C000704700280CBF491C20F00100704712EB14
:1048D000020E43EB030218BF4FF0010E4EEA4202F4
:1048E000ACF1200CDCF11E0E54D943FA0CFE10EB97
:1048F0000E0051F1FF31CCF11E0ED5D50EF1010E97
:1049000012FA0EFE404141EB010101EB445C5FEA0B
:104910005C5C10D910EBDE7001EB045138BFBEF1C6
:10492000004FBDE8104018BF704700280CBF491C5D
:1049300020F00100704730D24FEAD42C11F500115D
:1049400024F400641BD0B1FA81F20B3AA41AA41E1D
:10495000D2F12003914030FA03F31943904001EB68
:10496000CC71002C01EB0451BDE81040A8BF70478A
:1049700001F1C0414FF0000001F000417047B0FA72
:1049800080F310FA03F100D110BDE41A173C48057A
:10499000C90AE4E701EB045110BD491001EB0451D1
:1049A000BDE810404FEA300002E04FF000017047D0
:1049B0004A0008BF0042F8D0B2F5001F28BF704778
:1049C00001F000414FF0000070479EEA445F07D0BD
:1049D00011EA5E0FBDE8104004BF002100207047BF
:1049E000BDE8104070B5FFF7CBFE00BF40DFF63EDC
:1049F00083F00041104670470000E0FF43004FEA9B
:104A0000D30C4FEA3C0C43401FBF40070CF16051F0
:104A100013F0FE4F70471CF0006F03D100200CF024
:104A2000004170470CF0004343EA507010B540EA73
:104A3000CC0000F0B8F800BF000000924FEA00017F
:104A4000FFF7ECBE4FF000414FF00000A1F5002150
:104A50007047000090EA010F48BF81F0004100F16B
:104A6000F480421A3CBF801A89184FEAD0524FF0A6
:104A70007F4C1CEA410FA2EBD15318BF9CEA026F96
:104A800000F03B804FF0004C4CEA00204CEA012142
:104A900021FA03FC10EB0C0C1ED202F1FF325FEA8C
:104AA0001C2040EBC25038BF70471CF07F0F4FEA0C
:104AB000400C18BFBCF17F4F38BF7047C3F12003D3
:104AC000994008BF20F00100BCF17F4F38BF70470C
:104AD000A0F1C04000F0ADB84FEA3C00000A40EB46
:104AE000C25028BF1CF0FF0F4FEA400CE6D018BFA1
:104AF000BCF17F4F38BF7047EAE79CEA026F05D0F0
:104B000010EA5C0F08BF00F00040704710B500F0DD
:104B10004AF800BF64FBBE3E41000B0ED3F19E027B
:104B200008D950F400034FEA032323FA02F048BFE8
:104B30004042704710B500F036F800BF499224801B
:104B4000002070476FF0004282EA200070470000AA
:104B500010F0004148BF4042B0FA80F310FA03F26F
:104B6000C3F19D030BD051EAC35101EB1220530650
:104B700038BF704700F1010008BF20F00100704706
:104B8000B0FA80F310FA03F2C3F19D030AD0D905FD
:104B900001EB1220530638BF704700F1010008BF37
:104BA00020F0010070470EF1020E2EF0030E5EF8A9
:104BB000044B244204D44FEA4102B2F17F4F11D892
:104BC0004FEA4003B3F17F4F0CD80ED14FEAD07CAF
:104BD000B2F17F4F0CEB4C0C0CF1020C08BF4CEB0C
:104BE000D17C04E04FF0080C01E04FEAD17C0CEBE3
:104BF0004C0324FA03F404F00704B4F1040C06D2C5
:104C00000EEB840CBDE810404CF0010C6047DFE86F
:104C10000CF0070802024FF00040A0F5800010BD24
:104C20000846420018BFD2F1807288BF00F00040F1
:104C300010BDFF2141EAD050C005704790EA010F36
:104C400048BF81F000413FF50CAF421A04D882F012
:104C50000042A0EB020011444FEAD0524FF07F4CCB
:104C60001CEA410FA2EBD15318BF9CEA026F4AD055
:104C70004FF0004C4CEA00204CEA012121FA03FCE1
:104C8000B0EB0C0C0FD412F0FE0F36D05FEA4C00E4
:104C90001DD5001240EBC25038BF70471CF03F0FCB
:104CA00018BF70470BE0A2F101025FEA1C2040EB45
:104CB000C25038BF70471CF07F0F18BF7047C3F158
:104CC0002003994014BF401E20F001007047800867
:104CD0004FEA122308BF7047B0FA80FCA2EB0C0227
:104CE000CCF1280C60FA0CF093EA122F04BF00EB11
:104CF000C25070474FEAC3707047130A5FEADC1076
:104D000008BF7047F6E79CEA026F04D010EA5C0F18
:104D100008BF0020704710B5FFF745FF40DFF63EA3
:104D200081F000407047FBF7E8BC00000000000085
:104D3000000000000000000000003F4000000000F4
:104D4000000000003000400030004000000009007A
:104D50000BC03D000BC03D00090018C024407FE09F
:104D6000224031800000180024C01B000D8032401A
:104D7000018003801C4027401C8007400040100039
:104D800060000000000000000000000000000000C3
:104D90001F80204040200000402020401F80000055
:104DA0000000090006001F80060009000000040042
:104DB00004003F80040004000000001000600000B8
:104DC00000000000000004000400040004000400CF
:104DD0000000000000400000000000000000002073
:104DE00001C006003800400000001F802040204025
:104DF00020401F800000000010403FC00040000025
:104E0000000018C0214022402440184000001080BB
:104E10002040244024401B80000002000D001100AF
:104E20003FC0014000003C802440244024402380B7
:104E300000001F80244024403440038000003000E4
:104E4000200027C03800200000001B8024402440A0
:104E500024401B8000001C0022C0224022401F80F2
:104E600000000000000008400000000000000000FA
:104E700000000460000000000000000004000A00C0
:104E800011002080404009000900090009000900C4
:104E9000000000004040208011000A0004001800BB
:104EA000200023402400180000001F8020402740DD
:104EB00029401F400000004007C039000F0001C01A
:104EC000004020403FC0244024401B8000001F8041
:104ED0002040204020403080000020403FC0204043
:104EE00020401F80000020403FC024402E4030C0A2
:104EF000000020403FC024402E00300000000F0082
:104F00001080204022403380020020403FC0040037
:104F100004003FC02040204020403FC020402040AF
:104F200000000060202020203FC020002000204002
:104F30003FC024400B0030C0204020403FC02040F4
:104F40000040004000C03FC03C0003C03C003FC0E8
:104F5000000020403FC00C4023003FC020001F80C5
:104F60002040204020401F80000020403FC02440BF
:104F70002400180000001F802140214020E01FA0D5
:104F8000000020403FC02440260019C0004018C047
:104F900024402440224031800000300020403FC0A7
:104FA00020403000000020003F80004000403F8053
:104FB000200020003E0001C007003800200038001B
:104FC00007C03C0007C038000000204039C0060080
:104FD00039C0204000002000384007C03840200081
:104FE0000000304021C02640384020C000000000B2
:104FF00000007FE0402040200000000070000C0016
:105000000380004000000000402040207FE00000BE
:105010000000000020004000200000000000001000
:1050200000100010001000100010000000004000F0
:10503000000000000000000002800540054003C0A1
:10504000004020003FC004400440038000000000F6
:105050000380044004400640000000000380044038
:1050600024403FC00040000003800540054003404D
:105070000000000004401FC0244024402000000025
:1050800002E0055005500650042020403FC0044077
:10509000040003C000400000044027C0004000009E
:1050A000000000100010041027E000000000204065
:1050B0003FC00140070004C00440204020403FC0E2
:1050C00000400040000007C0040007C0040003C007
:1050D0000000044007C00440040003C0004000007A
:1050E00003800440044003800000041007F00450D3
:1050F000044003800000000003800440045007F0D7
:105100000010044007C0024004000400000000003A
:1051100006400540054004C00000000004001F8058
:10512000044000400000040007800040044007C025
:1051300000400400070004C00180060004000600CF
:1051400001C0070001C006000000044006C00100C5
:1051500006C0044000000410071004E001800600AF
:1051600004000000044005C00640044000000000A8
:10517000000004007BE04020000000000000000070
:10518000FFF000000000000040207BE00400000071
:10519000000040008000400020002000400000008F
:1051A00000000000000000000000000000000000FF
:1051B000000000001FCC000C0000000000000000F8
:1051C000080030006000080030006000000002208D
:1051D00003FC1E20022003FC1E2002200000000011
:1051E0000E1811043FFF10840C78000000000F001F
:1051F00010840F3800C00778188400780000007809
:105200000F8410C411240E9800E4008400080800E4
:1052100068007000000000000000000000000000B6
:105220000000000007E01818200440020000000001
:1052300040022004181807E00000000000000240AF
:10524000024001800FF00180024002400000008017
:10525000008000800FF800800080008000000001C6
:10526000000D000E00000000000000000000000023
:1052700000800080008000800080008000800000AE
:10528000000C000C00000000000000000000000006
:1052900000060018006001800600180020000000D1
:1052A00007F0080810041004080807F000000000C8
:1052B000080408041FFC00040004000000000000B3
:1052C0000E0C10141024104411840E0C0000000069
:1052D0000C1810041104110412880C700000000056
:1052E00000E00320042408241FFC00240000000028
:1052F0001F98108411041104108810700000000021
:1053000007F00888110411041888007000000000DC
:105310001C00100010FC13001C0010000000000016
:105320000E3811441084108411440E38000000001F
:105330000700088C10441044088807F000000000A3
:1053400000000000030C030C00000000000000003F
:105350000000000101060000000000000000000045
:105360000080014002200410080810040000022000
:105370000220022002200220022002200000000061
:105380001004080804100220014000800000000002
:105390000E001200100C106C10800F00000003E0D3
:1053A0000C1813E4142417C4082807D000000004C4
:1053B000003C03C41C40074000E4001C000410042F
:1053C0001FFC1104110411040E880070000003E09A
:1053D0000C1810041004100410081C100000100415
:1053E0001FFC100410041004080807F0000010044B
:1053F0001FFC1104110417C4100408180000100445
:105400001FFC1104110017C010000800000003E089
:105410000C181004100410441C7800400000100404
:105420001FFC10840080008010841FFC100400000A
:10543000100410041FFC10041004000000000003FE
:105440000001100110011FFE1000100000001004E8
:105450001FFC110403801464181C100400001004C5
:105460001FFC1004000400040004000C00001004E1
:105470001FFC1F0000FC1F001FFC10040000100494
:105480001FFC0C04030000E010181FFC100007F0C4
:105490000808100410041004080807F000001004A5
:1054A0001FFC10841080108010800F00000007F097
:1054B000081810241024101C080A07F20000100419
:1054C0001FFC1104110011C011300E0C000400006B
:1054D0000E1C11041084108410441C3800001800A5
:1054E000100010041FFC1004100018000000100031
:1054F0001FF810040004000410041FF8100010002E
:105500001E0011E0001C007013801C0010001FC062
:10551000103C00E01F0000E0103C1FC00000100421
:10552000180C163401C001C01634180C10041000F9
:105530001C00130400FC13041C00100000000804ED
:10554000101C1064108413041C04101800000000C8
:10555000000000007FFE4002400240020000000008
:1055600030000C0003800060001C000300000000FD
:105570004002400240027FFE0000000000000000E8
:10558000000020004000400040002000000000011A
:105590000001000100010001000100010001000004
:1055A000400040002000000000000000000000005B
:1055B0000098012401440144014400FC000410004F
:1055C0001FFC008801040104008800700000000036
:1055D000007000880104010401040088000000003C
:1055E000007000880104010411081FFC0004000081
:1055F00000F8014401440144014400C800000000D7
:10560000010401040FFC1104110411001800000032
:1056100000D601290129012901C901060000100451
:105620001FFC008401000100010400FC00040000D4
:105630000104190419FC000400040000000000002B
:10564000000300010101190119FE0000000010040F
:105650001FFC0024004001B4010C01040000000004
:10566000100410041FFC00040004000000000104EA
:1056700001FC0104010001FC0104010000FC010423
:1056800001FC008401000100010400FC0004000092
:1056900000F8010401040104010400F80000010104
:1056A00001FF008501040104008800700000000073
:1056B0000070008801040104010501FF00010104DC
:1056C000010401FC008401040100018000000000CD
:1056D00000CC0124012401240124019800000000D1
:1056E0000100010007F801040104000000000100AE
:1056F00001F8000400040004010801FC000401009A
:1057000001800170000C001001600180010001F0B7
:10571000010C003001C00030010C01F0010000005C
:105720000104018C00740170018C0104000001016E
:1057300001810171000E001801600180010000006C
:105740000184010C013401440184010C00000000BB
:1057500000000000000001003EFC4002400200008A
:10576000000000000000FFFF00000000000000003B
:10577000400240023EFC010000000000000000006A
:1057800060008000800040004000200020000000F9
:105790000000000000000000000000000000000009
:1057A00000000000000000000000000000000000F9
:1057B00000000000000000000000000000000000E9
:1057C000000F80380FFE380F803800000000000006
:1057D00000000000000000000000000001000006C2
:1057E00000000C00003800003100000600000C0032
:1057F0000038000030000000000000000000618060
:105800000067F807F9800061800061800061800016
:1058100061800067F807F9800061800000000000E7
:105820000000000001C0E003E0F0063008041808A2
:105830001FFFFE040E080787F00381E00000000050
:10584000000001F000060C00040408060C7001F9C9
:10585000C0000E00003BE000EC18070808040C181C
:105860000003E00000000001E00007F003F8180466
:105870001C0804170807E1D003C0E00023B0003C77
:1058800008002008000010000000000000010000D7
:105890003100003200001C00000000000000000089
:1058A00000000000000000000000000000000000F8
:1058B00000000000000000000000000000007F0069
:1058C00001FFC00780F00C00181000042000020047
:1058D00000000000002000021000040C00180780E7
:1058E000F001FFC0007F0000000000000000000089
:1058F0000000000000000000000042000066000000
:105900006600003C0000180003FFC0001800003CC7
:105910000000660000660000420000000000080071
:1059200000080000080000080000080001FFC00097
:10593000080000080000080000080000080000003F
:105940000000000100003100003200001C000000D7
:105950000000000000000000000000000000000047
:105960000000000000000800000800000800000817
:1059700000000800000800000800000800000800FF
:1059800000080000000000000000000000003800D7
:105990000038000038000000000000000000000097
:1059A00000000000000000000000000000000006F1
:1059B00000001C000070000180000E000038000094
:1059C000C0000700001C00003000000000000000C4
:1059D00000007F8001FFE0038070060018040008CB
:1059E00004000806001803807001FFE0007F8000BB
:1059F0000000000000000000010008010008010094
:105A00000803FFF807FFF80000080000080000087E
:105A100000000000000000000001C03802C058046F
:105A20000098040118040218040418061C1803F84E
:105A30001801E0F800000000000000000001C0E0D4
:105A400003C0F00400080408080408080618080346
:105A5000F41801E7F00001E0000000000000000081
:105A600000000300000D000011000061000081082B
:105A700003010807FFF80FFFF80001080001080004
:105A800000000000000000E007FCD0060808061037
:105A900008061008061008061838060FF00607C09A
:105AA000000000000000000000003F8001FFE00354
:105AB000843002081804100804100804100807189D
:105AC00010030FF00007C0000000000000000000FD
:105AD00003C0000700000600000600F80607F806ED
